{
  "contractName": "TouristRegistry",
  "abi": [
    {
      "inputs": [],
      "stateMutability": "nonpayable",
      "type": "constructor"
    },
    {
      "anonymous": false,
      "inputs": [
        {
          "indexed": false,
          "internalType": "uint256",
          "name": "touristId",
          "type": "uint256"
        },
        {
          "indexed": false,
          "internalType": "string",
          "name": "username",
          "type": "string"
        },
        {
          "indexed": false,
          "internalType": "string",
          "name": "encryptedData",
          "type": "string"
        }
      ],
      "name": "TouristRegistered",
      "type": "event"
    },
    {
      "inputs": [],
      "name": "owner",
      "outputs": [
        {
          "internalType": "address",
          "name": "",
          "type": "address"
        }
      ],
      "stateMutability": "view",
      "type": "function",
      "constant": true
    },
    {
      "inputs": [
        {
          "internalType": "uint256",
          "name": "",
          "type": "uint256"
        }
      ],
      "name": "tourists",
      "outputs": [
        {
          "internalType": "string",
          "name": "username",
          "type": "string"
        },
        {
          "internalType": "string",
          "name": "encryptedData",
          "type": "string"
        },
        {
          "internalType": "bool",
          "name": "exists",
          "type": "bool"
        }
      ],
      "stateMutability": "view",
      "type": "function",
      "constant": true
    },
    {
      "inputs": [
        {
          "internalType": "uint256",
          "name": "_touristId",
          "type": "uint256"
        },
        {
          "internalType": "string",
          "name": "_username",
          "type": "string"
        },
        {
          "internalType": "string",
          "name": "_encryptedData",
          "type": "string"
        }
      ],
      "name": "registerTourist",
      "outputs": [],
      "stateMutability": "nonpayable",
      "type": "function"
    },
    {
      "inputs": [
        {
          "internalType": "uint256",
          "name": "_touristId",
          "type": "uint256"
        }
      ],
      "name": "getTourist",
      "outputs": [
        {
          "internalType": "string",
          "name": "username",
          "type": "string"
        },
        {
          "internalType": "string",
          "name": "encryptedData",
          "type": "string"
        }
      ],
      "stateMutability": "view",
      "type": "function",
      "constant": true
    }
  ],
  "bytecode": "0x608060405234801561001057600080fd5b5033600160006101000a81548173ffffffffffffffffffffffffffffffffffffffff021916908373ffffffffffffffffffffffffffffffffffffffff160217905550610c5d806100616000396000f3fe608060405234801561001057600080fd5b506004361061004c5760003560e01c8063736a9ca71461005157806381f4b3751461006d5780638da5cb5b1461009e578063ce101b2f146100bc575b600080fd5b61006b6004803603810190610066919061073d565b6100ee565b005b61008760048036038101906100829190610714565b6102ae565b6040516100959291906108a6565b60405180910390f35b6100a6610487565b6040516100b3919061088b565b60405180910390f35b6100d660048036038101906100d19190610714565b6104ad565b6040516100e5939291906108dd565b60405180910390f35b600160009054906101000a900473ffffffffffffffffffffffffffffffffffffffff1673ffffffffffffffffffffffffffffffffffffffff163373ffffffffffffffffffffffffffffffffffffffff161461017e576040517f08c379a000000000000000000000000000000000000000000000000000000000815260040161017590610962565b60405180910390fd5b60008084815260200190815260200160002060020160009054906101000a900460ff16156101e1576040517f08c379a00000000000000000000000000000000000000000000000000000000081526004016101d890610942565b60405180910390fd5b604051806060016040528083815260200182815260200160011515815250600080858152602001908152602001600020600082015181600001908051906020019061022d9291906105f4565b50602082015181600101908051906020019061024a9291906105f4565b5060408201518160020160006101000a81548160ff0219169083151502179055509050507fb10a71156f24ef64daa5bcff151457a37bf437e1d29338150f24315f735c424e8383836040516102a193929190610982565b60405180910390a1505050565b60608060008084815260200190815260200160002060020160009054906101000a900460ff16610313576040517f08c379a000000000000000000000000000000000000000000000000000000000815260040161030a90610922565b60405180910390fd5b600080600085815260200190815260200160002060405180606001604052908160008201805461034290610ac3565b80601f016020809104026020016040519081016040528092919081815260200182805461036e90610ac3565b80156103bb5780601f10610390576101008083540402835291602001916103bb565b820191906000526020600020905b81548152906001019060200180831161039e57829003601f168201915b505050505081526020016001820180546103d490610ac3565b80601f016020809104026020016040519081016040528092919081815260200182805461040090610ac3565b801561044d5780601f106104225761010080835404028352916020019161044d565b820191906000526020600020905b81548152906001019060200180831161043057829003601f168201915b505050505081526020016002820160009054906101000a900460ff1615151515815250509050806000015181602001519250925050915091565b600160009054906101000a900473ffffffffffffffffffffffffffffffffffffffff1681565b60006020528060005260406000206000915090508060000180546104d090610ac3565b80601f01602080910402602001604051908101604052809291908181526020018280546104fc90610ac3565b80156105495780601f1061051e57610100808354040283529160200191610549565b820191906000526020600020905b81548152906001019060200180831161052c57829003601f168201915b50505050509080600101805461055e90610ac3565b80601f016020809104026020016040519081016040528092919081815260200182805461058a90610ac3565b80156105d75780601f106105ac576101008083540402835291602001916105d7565b820191906000526020600020905b8154815290600101906020018083116105ba57829003601f168201915b5050505050908060020160009054906101000a900460ff16905083565b82805461060090610ac3565b90600052602060002090601f0160209004810192826106225760008555610669565b82601f1061063b57805160ff1916838001178555610669565b82800160010185558215610669579182015b8281111561066857825182559160200191906001019061064d565b5b509050610676919061067a565b5090565b5b8082111561069357600081600090555060010161067b565b5090565b60006106aa6106a5846109ec565b6109c7565b9050828152602081018484840111156106c257600080fd5b6106cd848285610a81565b509392505050565b600082601f8301126106e657600080fd5b81356106f6848260208601610697565b91505092915050565b60008135905061070e81610c10565b92915050565b60006020828403121561072657600080fd5b6000610734848285016106ff565b91505092915050565b60008060006060848603121561075257600080fd5b6000610760868287016106ff565b935050602084013567ffffffffffffffff81111561077d57600080fd5b610789868287016106d5565b925050604084013567ffffffffffffffff8111156107a657600080fd5b6107b2868287016106d5565b9150509250925092565b6107c581610a39565b82525050565b6107d481610a4b565b82525050565b60006107e582610a1d565b6107ef8185610a28565b93506107ff818560208601610a90565b61080881610b84565b840191505092915050565b6000610820601683610a28565b915061082b82610b95565b602082019050919050565b6000610843601a83610a28565b915061084e82610bbe565b602082019050919050565b6000610866600e83610a28565b915061087182610be7565b602082019050919050565b61088581610a77565b82525050565b60006020820190506108a060008301846107bc565b92915050565b600060408201905081810360008301526108c081856107da565b905081810360208301526108d481846107da565b90509392505050565b600060608201905081810360008301526108f781866107da565b9050818103602083015261090b81856107da565b905061091a60408301846107cb565b949350505050565b6000602082019050818103600083015261093b81610813565b9050919050565b6000602082019050818103600083015261095b81610836565b9050919050565b6000602082019050818103600083015261097b81610859565b9050919050565b6000606082019050610997600083018661087c565b81810360208301526109a981856107da565b905081810360408301526109bd81846107da565b9050949350505050565b60006109d16109e2565b90506109dd8282610af5565b919050565b6000604051905090565b600067ffffffffffffffff821115610a0757610a06610b55565b5b610a1082610b84565b9050602081019050919050565b600081519050919050565b600082825260208201905092915050565b6000610a4482610a57565b9050919050565b60008115159050919050565b600073ffffffffffffffffffffffffffffffffffffffff82169050919050565b6000819050919050565b82818337600083830152505050565b60005b83811015610aae578082015181840152602081019050610a93565b83811115610abd576000848401525b50505050565b60006002820490506001821680610adb57607f821691505b60208210811415610aef57610aee610b26565b5b50919050565b610afe82610b84565b810181811067ffffffffffffffff82111715610b1d57610b1c610b55565b5b80604052505050565b7f4e487b7100000000000000000000000000000000000000000000000000000000600052602260045260246000fd5b7f4e487b7100000000000000000000000000000000000000000000000000000000600052604160045260246000fd5b6000601f19601f8301169050919050565b7f546f7572697374206e6f74207265676973746572656400000000000000000000600082015250565b7f546f757269737420616c72656164792072656769737465726564000000000000600082015250565b7f4e6f7420617574686f72697a6564000000000000000000000000000000000000600082015250565b610c1981610a77565b8114610c2457600080fd5b5056fea264697066735822122085f6bd61ec9d291d548f05c3f2e609d083f801b194582cfdd253569a3468f2c364736f6c63430008020033",
  "immutableReferences": {},
  "source": "// SPDX-License-Identifier: MIT\r\npragma solidity >=0.8.2 <0.9.0;\r\n\r\ncontract TouristRegistry {\r\n    // Struct to represent a tourist\r\n    struct Tourist {\r\n        string username;       \r\n        string encryptedData;  \r\n        bool exists;           \r\n    }\r\n\r\n    // Mapping from touristId => Tourist\r\n    mapping(uint256 => Tourist) public tourists;\r\n\r\n    // Contract owner\r\n    address public owner;\r\n\r\n    // Events\r\n    event TouristRegistered(uint256 touristId, string username, string encryptedData);\r\n\r\n    // Restrict access to contract owner\r\n    modifier onlyOwner() {\r\n        require(msg.sender == owner, \"Not authorized\");\r\n        _;\r\n    }\r\n\r\n    constructor() {\r\n        owner = msg.sender; // The deployer is the contract owner\r\n    }\r\n\r\n    // Register a new tourist\r\n    function registerTourist(\r\n        uint256 _touristId,\r\n        string memory _username,\r\n        string memory _encryptedData\r\n    ) public onlyOwner {\r\n        require(!tourists[_touristId].exists, \"Tourist already registered\");\r\n\r\n        tourists[_touristId] = Tourist({\r\n            username: _username,\r\n            encryptedData: _encryptedData,\r\n            exists: true\r\n        });\r\n\r\n        emit TouristRegistered(_touristId, _username, _encryptedData);\r\n    }\r\n\r\n    // Fetch tourist details by ID\r\n    function getTourist(uint256 _touristId)\r\n        public\r\n        view\r\n        returns (string memory username, string memory encryptedData)\r\n    {\r\n        require(tourists[_touristId].exists, \"Tourist not registered\");\r\n        Tourist memory t = tourists[_touristId];\r\n        return (t.username, t.encryptedData);\r\n    }\r\n}\r\n",
  "sourcePath": "D:\\Projects\\Saarthi\\saarthi\\blockchain\\contracts\\TouristRegistry.sol",
  "compiler": {
    "name": "solc",
    "version": "0.8.2+commit.661d1103.Emscripten.clang"
  },
  "schemaVersion": "3.4.16",
  "updatedAt": "2025-09-20T11:41:48.871Z",
  "networkType": "ethereum",
  "devdoc": {
    "kind": "dev",
    "methods": {},
    "version": 1
  },
  "userdoc": {
    "kind": "user",
    "methods": {},
    "version": 1
  }
}